:020000040800F2
:10000000002800207D0400082104000827040008BF
:100010002D04000833040008390400080000000023
:100020000000000000000000000000003F04000885
:100030004B04000800000000570400086304000897
:10004000C5040008C5040008C5040008C50400086C
:10005000C5040008C5040008C5040008C50400085C
:10006000C5040008C5040008C5040008C50400084C
:10007000C5040008C5040008C5040008C50400083C
:10008000C5040008C5040008C5040008C50400082C
:10009000C5040008C5040008C5040008C50400081C
:1000A000C5040008C5040008C5040008C50400080C
:1000B000C5040008C504000800000000C5040008CD
:1000C000C50400080000000000000000C50400088E
:1000D00000000000C5040008C5040008000000007E
:1000E000C5040008C5040008C5040008000000009D
:1000F0000000000000000000000000000000000000
:0C01000000000000000000005FF808F1A3
:10010C0010B5054C237833B9044B13B10448AFF345
:10011C0000800123237010BD0C00002000000000A3
:10012C00D016000808B5034B1BB103490348AFF3C5
:10013C00008008BD0000000010000020D016000850
:10014C0080B500AF00F0BAF900F01EF800F082F8AC
:10015C0000F056F84FF0FF3301220849084801F02F
:10016C00F7F80346002BF5D10121064800F078FC86
:10017C004FF4FA7000F004FAECE700BF70000020B6
:10018C0028000020000C014080B590B000AF07F1B2
:10019C00180328220021184601F08CFA3B1D00227E
:1001AC001A605A609A60DA601A610223BB610123FB
:1001BC00BB621023FB6200237B6307F11803184614
:1001CC0000F068FC0346002B01D000F0A1F80F23CF
:1001DC007B600023BB600023FB6000233B6100239A
:1001EC007B613B1D0021184600F0D4FE0346002B1A
:1001FC0001D000F08DF800BF4037BD4680BD000037
:10020C0080B500AF114B124A1A60104B4FF41652C6
:10021C005A600E4B00229A600C4B0022DA600B4B9A
:10022C0000221A61094B0C225A61084B00229A6178
:10023C00064B0022DA61054801F03AF80346002B20
:10024C0001D000F065F800BF80BD00BF2800002081
:10025C000038014080B586B000AF07F108030022DA
:10026C001A605A609A60DA60264B9B69254A43F003
:10027C0004039361234B9B6903F004037B607B684D
:10028C00204B9B691F4A43F0080393611D4B9B69EC
:10029C0003F008033B603B68002201211A4800F080
:1002AC00C7FB00220221184800F0C2FB0123BB60EF
:1002BC000023FB6000233B6107F108031946134838
:1002CC0000F064FA0123BB600123FB6000233B6157
:1002DC0002237B6107F1080319460B4800F056FA1C
:1002EC000223BB600123FB6000233B6102237B6183
:1002FC0007F108031946044800F048FA00BF183704
:10030C00BD4680BD00100240000C014000080140B9
:10031C0080B400AF72B6FEE780B485B000AF154B69
:10032C009B69144A43F001039361124B9B6903F0E0
:10033C000103BB60BB680F4BDB690E4A43F0805373
:10034C00D3610C4BDB6903F080537B607B680A4BF9
:10035C005B68FB60FB6823F0E063FB60FB6843F0C9
:10036C000073FB60044AFB68536000BF1437BD4642
:10037C0080BC7047001002400000014080B588B07E
:10038C0000AF786007F1100300221A605A609A607F
:10039C00DA607B681B681C4A934231D11B4B9B690A
:1003AC001A4A43F480439361184B9B6903F48043CE
:1003BC00FB60FB68154B9B69144A43F00403936183
:1003CC00124B9B6903F00403BB60BB684FF40073D2
:1003DC003B6102237B610323FB6107F11003194688
:1003EC000B4800F0D3F94FF480633B6100237B6131
:1003FC000023BB6107F110031946054800F0C6F94C
:10040C0000BF2037BD4680BD0038014000100240BF
:10041C000008014080B400AFFEE780B400AFFEE7F7
:10042C0080B400AFFEE780B400AFFEE780B400AF4D
:10043C00FEE780B400AF00BFBD4680BC704780B4FF
:10044C0000AF00BFBD4680BC704780B400AF00BF9A
:10045C00BD4680BC704780B500AF00F075F800BF9A
:10046C0080BD80B400AF00BFBD4680BC70470000AB
:10047C00FFF7F7FF0B480C490C4A002302E0D45855
:10048C00C4500433C4188C42F9D3094A094C0023D4
:10049C0001E013600432A242FBD301F0E7F8FFF74E
:1004AC004FFE7047000000200C0000201C170008B5
:1004BC000C00002078000020FEE7000080B500AFA3
:1004CC00084B1B68074A43F010031360032000F02D
:1004DC0029F90F2000F008F8FFF71EFF002318463B
:1004EC0080BD00BF0020024080B582B000AF7860B4
:1004FC00124B1A68124B1B7819464FF47A73B3FBE4
:10050C00F1F3B2FBF3F3184600F033F90346002B7A
:10051C0001D001230EE07B680F2B0AD800227968EA
:10052C004FF0FF3000F009F9064A7B681360002396
:10053C0000E0012318460837BD4680BD00000020AE
:10054C00080000200400002080B400AF054B1B788D
:10055C001A46054B1B681344034A136000BFBD4683
:10056C0080BC7047080000207400002080B400AFED
:10057C00024B1B681846BD4680BC704774000020B7
:10058C0080B584B000AF7860FFF7F0FFB8607B688F
:10059C00FB60FB68B3F1FF3F05D0094B1B781A4693
:1005AC00FB681344FB6000BFFFF7E0FF0246BB682B
:1005BC00D31AFA689A42F7D800BF1037BD4680BDEF
:1005CC000800002080B485B000AF78607B6803F031
:1005DC000703FB600C4BDB68BB60BA684FF6FF038C
:1005EC001340BB60FB681A02BB68134343F0BF6344
:1005FC0043F40033BB60044ABB68D36000BF1437BC
:10060C00BD4680BC704700BF00ED00E080B400AF79
:10061C00044BDB681B0A03F007031846BD4680BC7D
:10062C00704700BF00ED00E080B483B000AF03461C
:10063C003960FB7197F90730002B0ADB3B68DAB2A3
:10064C000C4997F907301201D2B20B4483F80023FE
:10065C000AE03B68DAB20849FB7903F00F03043B6C
:10066C001201D2B20B441A7600BF0C37BD4680BCC7
:10067C00704700BF00E100E000ED00E080B489B0FD
:10068C0000AFF860B9607A60FB6803F00703FB61A8
:10069C00FB69C3F10703042B28BF0423BB61FB696F
:1006AC000433062B02D9FB69033B00E000237B617A
:1006BC004FF0FF32BB6902FA03F3DA43BB681A400E
:1006CC007B699A404FF0FF317B6901FA03F3D94300
:1006DC007B680B40134318462437BD4680BC7047DB
:1006EC0080B582B000AF78607B68013BB3F1807F4E
:1006FC0001D301230FE00A4A7B68013B53600F21B1
:10070C004FF0FF30FFF790FF054B00229A60044B2F
:10071C0007221A60002318460837BD4680BD00BF6B
:10072C0010E000E080B582B000AF78607868FFF729
:10073C0049FF00BF0837BD4680BD80B586B000AF0D
:10074C000346B9607A60FB7300237B61FFF75EFFA1
:10075C0078617A68B9687869FFF790FF024697F973
:10076C000F3011461846FFF75FFF00BF1837BD4624
:10077C0080BD80B582B000AF78607868FFF7B0FFBD
:10078C00034618460837BD4680BD000080B48BB0C8
:10079C0000AF7860396000237B6200233B6221E16B
:1007AC0001227B6A02FA03F3FB613B681B68FA695E
:1007BC001340BB61BA69FB699A4240F010813B68F7
:1007CC005B68122B34D0122B0DD8022B2BD0022BA2
:1007DC0004D8002B31D0012B1CD048E0032B43D084
:1007EC00112B1BD043E0864A934226D0844A934275
:1007FC0006D8844A934220D0834A93421DD036E0D7
:10080C00824A934219D0824A934216D0814A93422B
:10081C0013D02CE03B68DB683B6228E03B68DB686C
:10082C0004333B6223E03B68DB6808333B621EE029
:10083C003B68DB680C333B6219E03B689B68002B20
:10084C0002D104233B6212E03B689B68012B05D16B
:10085C0008233B627B68FA691A6108E008233B6253
:10086C007B68FA695A6102E000233B6200BFBB69F6
:10087C00FF2B01D87B6801E07B6804337B61BB698B
:10088C00FF2B02D87B6A9B0002E07B6A083B9B0033
:10089C003B617B691A680F213B6901FA03F3DB4367
:1008AC001A40396A3B6901FA03F31A437B691A60EF
:1008BC003B685B6803F08053002B00F09080564B34
:1008CC009B69554A43F001039361534B9B6903F0B9
:1008DC000103BB60BB68514A7B6A9B08023352F828
:1008EC002330FB607B6A03F003039B000F2202FAA8
:1008FC0003F3DB43FA681340FB607B68484A93427E
:10090C000DD07B68474A934207D07B68464A934296
:10091C0001D1022304E0032302E0012300E00023C1
:10092C007A6A02F0030292009340FA681343FB6068
:10093C003A497B6A9B080233FA6841F823203B68EA
:10094C005B6803F48013002B06D0384B9A68374948
:10095C00BB6913438B6006E0344B9A68BB69DB437D
:10096C00324913408B603B685B6803F40013002B27
:10097C0006D02E4BDA682D49BB691343CB6006E0D9
:10098C002A4BDA68BB69DB4328491340CB603B68D0
:10099C005B6803F40033002B06D0244B5A682349C0
:1009AC00BB6913434B6006E0204B5A68BB69DB43C1
:1009BC001E4913404B603B685B6803F48033002B8B
:1009CC0006D01A4B1A681949BB6913430B6006E031
:1009DC00164B1A68BB69DB43144913400B607B6AE6
:1009EC0001337B623B681A687B6A22FA03F3002BA3
:1009FC007FF4D6AE00BF2C37BD4680BC704700BF1D
:100A0C000000211000001110000012100000311025
:100A1C0000003210000022100010024000000140C3
:100A2C0000080140000C014000100140000401408E
:100A3C0080B483B000AF78600B467B8013467B702C
:100A4C007B78002B03D07A887B681A6103E07B8863
:100A5C001A047B681A6100BF0C37BD4680BC704716
:100A6C0080B485B000AF78600B467B807B68DB6818
:100A7C00FB607A88FB6813401A04FB68D9437B88B7
:100A8C000B401A437B681A6100BF1437BD4680BC0B
:100A9C007047000080B586B000AF78607B68002B93
:100AAC0001D101236CE27B681B6803F00103002B6E
:100ABC0000F08780924B5B6803F00C03042B0CD086
:100ACC008F4B5B6803F00C03082B12D18C4B5B68CB
:100ADC0003F48033B3F5803F0BD1894B1B6803F4CF
:100AEC000033002B6CD07B685B68002B68D1012332
:100AFC0046E27B685B68B3F5803F06D1804B1B6890
:100B0C007F4A43F4803313602EE07B685B68002BD4
:100B1C000CD17B4B1B687A4A23F480331360784BDF
:100B2C001B68774A23F4802313601DE07B685B68A5
:100B3C00B3F5A02F0CD1724B1B68714A43F4802380
:100B4C0013606F4B1B686E4A43F4803313600BE0E9
:100B5C006B4B1B686A4A23F480331360684B1B6829
:100B6C00674A23F4802313607B685B68002B13D0E7
:100B7C00FFF7FCFC386108E0FFF7F8FC02463B6924
:100B8C00D31A642B01D90323FAE15D4B1B6803F4E0
:100B9C000033002BF0D014E0FFF7E8FC386108E0DC
:100BAC00FFF7E4FC02463B69D31A642B01D90323FB
:100BBC00E6E1534B1B6803F40033002BF0D100E04B
:100BCC0000BF7B681B6803F00203002B63D04C4B07
:100BDC005B6803F00C03002B0BD0494B5B6803F0F4
:100BEC000C03082B1CD1464B5B6803F48033002BA1
:100BFC0016D1434B1B6803F00203002B05D07B6816
:100C0C001B69012B01D00123BAE13D4B1B6823F07A
:100C1C00F8027B685B69DB00394913430B603AE0EF
:100C2C007B681B69002B20D0364B01221A60FFF722
:100C3C009DFC386108E0FFF799FC02463B69D31A2A
:100C4C00022B01D903239BE12D4B1B6803F00203FC
:100C5C00002BF0D02A4B1B6823F0F8027B685B69F1
:100C6C00DB00274913430B6015E0264B00221A606A
:100C7C00FFF77CFC386108E0FFF778FC02463B6923
:100C8C00D31A022B01D903237AE11D4B1B6803F005
:100C9C000203002BF0D17B681B6803F00803002BC8
:100CAC003AD07B689B69002B19D0174B01221A6034
:100CBC00FFF75CFC386108E0FFF758FC02463B6923
:100CCC00D31A022B01D903235AE10D4B5B6A03F0B3
:100CDC000203002BF0D0012000F0CCFA1CE00A4BF0
:100CEC0000221A60FFF742FC38610FE0FFF73EFC70
:100CFC0002463B69D31A022B08D9032340E100BFFB
:100D0C000010024000004242800442429E4B5B6A4B
:100D1C0003F00203002BE9D17B681B6803F004038A
:100D2C00002B00F0A6800023FB75974BDB6903F0CA
:100D3C008053002B0DD1944BDB69934A43F08053C5
:100D4C00D361914BDB6903F08053BB60BB6801231B
:100D5C00FB758E4B1B6803F48073002B18D18B4BE7
:100D6C001B688A4A43F480731360FFF7FFFB3861FA
:100D7C0008E0FFF7FBFB02463B69D31A642B01D951
:100D8C000323FDE0814B1B6803F48073002BF0D030
:100D9C007B68DB68012B06D17B4B1B6A7A4A43F0DC
:100DAC00010313622DE07B68DB68002B0CD1764BC2
:100DBC001B6A754A23F001031362734B1B6A724A58
:100DCC0023F0040313621CE07B68DB68052B0CD159
:100DDC006D4B1B6A6C4A43F0040313626A4B1B6A2B
:100DEC00694A43F0010313620BE0674B1B6A664AC6
:100DFC0023F001031362644B1B6A634A23F0040360
:100E0C0013627B68DB68002B15D0FFF7AFFB3861F2
:100E1C000AE0FFF7ABFB02463B69D31A41F288327A
:100E2C00934201D90323ABE0574B1B6A03F0020337
:100E3C00002BEED014E0FFF799FB38610AE0FFF7C6
:100E4C0095FB02463B69D31A41F28832934201D991
:100E5C00032395E04C4B1B6A03F00203002BEED1ED
:100E6C00FB7D012B05D1484BDB69474A23F08053AE
:100E7C00D3617B68DB69002B00F08180424B5B689F
:100E8C0003F00C03082B61D07B68DB69022B46D185
:100E9C003F4B00221A60FFF769FB386108E0FFF74F
:100EAC0065FB02463B69D31A022B01D9032367E089
:100EBC00354B1B6803F00073002BF0D17B681B6A69
:100ECC00B3F5803F08D1304B5B6823F400327B686C
:100EDC009B682D4913434B602B4B5B6823F47412B6
:100EEC007B68196A7B685B6A0B43274913434B6029
:100EFC00274B01221A60FFF739FB386108E0FFF736
:100F0C0035FB02463B69D31A022B01D9032337E088
:100F1C001D4B1B6803F00073002BF0D02FE01C4B13
:100F2C0000221A60FFF722FB386108E0FFF71EFB76
:100F3C0002463B69D31A022B01D9032320E0124B42
:100F4C001B6803F00073002BF0D118E07B68DB69A1
:100F5C00012B01D1012313E00B4B5B68FB60FB6899
:100F6C0003F480327B681B6A9A4206D1FB6803F457
:100F7C0070127B685B6A9A4201D0012300E0002367
:100F8C0018461837BD4680BD001002400070004066
:100F9C006000424280B584B000AF786039607B68F5
:100FAC00002B01D10123D0E06A4B1B6803F007032F
:100FBC003A689A4210D9674B1B6823F007026549BF
:100FCC003B6813430B60634B1B6803F007033A68E1
:100FDC009A4201D00123B8E07B681B6803F002033E
:100FEC00002B20D07B681B6803F00403002B05D07A
:100FFC00594B5B68584A43F4E06353607B681B6849
:10100C0003F00803002B05D0534B5B68524A43F4A2
:10101C0060535360504B5B6823F0F0027B689B6815
:10102C004D4913434B607B681B6803F00103002B95
:10103C0040D07B685B68012B07D1474B1B6803F4DE
:10104C000033002B15D101237FE07B685B68022BFA
:10105C0007D1414B1B6803F00073002B09D101230E
:10106C0073E03D4B1B6803F00203002B01D10123FD
:10107C006BE0394B5B6823F003027B685B68364995
:10108C0013434B60FFF772FAF8600AE0FFF76EFA51
:10109C000246FB68D31A41F28832934201D90323EA
:1010AC0053E02D4B5B6803F00C027B685B689B0084
:1010BC009A42EBD1274B1B6803F007033A689A421C
:1010CC0010D2244B1B6823F0070222493B681343C0
:1010DC000B60204B1B6803F007033A689A4201D05F
:1010EC00012332E07B681B6803F00403002B08D05B
:1010FC00194B5B6823F4E0627B68DB681649134389
:10110C004B607B681B6803F00803002B09D0124B63
:10111C005B6823F460527B681B69DB000E49134348
:10112C004B6000F021F801460B4B5B681B0903F088
:10113C000F030A4AD35C21FA03F3094A1360094BE3
:10114C001B681846FFF7D0F9002318461037BD4628
:10115C0080BD00BF0020024000100240E8160008CD
:10116C00000000200400002080B487B000AF0023F2
:10117C00FB600023BB6000237B6100237B600023AA
:10118C003B611E4B5B68FB60FB6803F00C03042B9C
:10119C0002D0082B03D027E0194B3B6127E0FB68FA
:1011AC009B0C03F00F03174AD35C7B60FB6803F4C2
:1011BC008033002B10D0114B5B685B0C03F00103E8
:1011CC00114AD35CBB607B680D4A02FB03F2BB681F
:1011DC00B2FBF3F37B6104E07B680C4A02FB03F384
:1011EC007B617B693B6102E0054B3B6100BF3B6966
:1011FC0018461C37BD4680BC704700BF001002402B
:10120C0000127A00001700081017000800093D00B2
:10121C0080B400AF024B1B681846BD4680BC7047BB
:10122C000000002080B500AFFFF7F2FF0146054B30
:10123C005B681B0A03F00703034AD35C21FA03F330
:10124C00184680BD00100240F816000880B500AFAB
:10125C00FFF7DEFF0146054B5B68DB0A03F0070373
:10126C00034AD35C21FA03F3184680BD00100240F8
:10127C00F816000880B485B000AF78600A4B1B6884
:10128C000A4AA2FB03235B0A7A6802FB03F3FB60A6
:10129C0000BFFB685A1EFA60002BF9D100BF14374F
:1012AC00BD4680BC704700BF00000020D34D6210CB
:1012BC0080B582B000AF78607B68002B01D1012330
:1012CC0042E07B6893F84130DBB2002B06D17B689F
:1012DC00002283F840207868FFF750F87B682422BE
:1012EC0083F841207B681B68DA687B681B6822F4F2
:1012FC000052DA60786800F02BF97B681B681A6979
:10130C007B681B6822F490421A617B681B685A69DF
:10131C007B681B6822F02A025A617B681B68DA68BA
:10132C007B681B6842F40052DA607B6800225A64C6
:10133C007B68202283F841207B68202283F842209E
:10134C007B6800225A63002318460837BD4680BDCF
:10135C0080B58AB002AFF860B9603B601346FB8081
:10136C0000237B61FB6893F84230DBB2202B7CD1ED
:10137C00BB68002B02D0FB88002B01D1012375E048
:10138C00FB6800225A64FB68222283F84220FB6827
:10139C0000221A63FFF7EAF87861FB68FA889A85ED
:1013AC00FB68FA88DA85FB689B68B3F5805F08D127
:1013BC00FB681B69002B04D10023FB61BB68BB617C
:1013CC0003E0BB68FB610023BB6143E03B68009317
:1013DC007B6900222021F86800F04CF80346002BB2
:1013EC0001D0032342E0FB69002B0CD1FB681B6886
:1013FC005B689BB2C3F308039AB2BB691A80BB69E2
:10140C000233BB611FE0FB689B68B3F5805F07D0BC
:10141C00FB689B68002B0AD1FB681B69002B06D16B
:10142C00FB681B685B68DAB2FB691A7008E0FB6842
:10143C001B685B68DBB203F07F03DAB2FB691A70DE
:10144C00FB690133FB61FB68DB8D9BB2013B9AB2FC
:10145C00FB68DA85FB68DB8D9BB2002BB6D1FB6891
:10146C00202283F84220002300E002231846203774
:10147C00BD4680BD80B590B000AFF860B9603B60F0
:10148C001346FB7150E0BB6CB3F1FF3F4CD0BB6C0F
:10149C00002B07D0FFF76AF802463B68D31ABA6CE8
:1014AC009A4241D2FB681B680C33BB62BB6A53E89F
:1014BC00003F7B627B6A23F4D073FB63FB681B6881
:1014CC000C33FA6B7A633B63396B7A6B41E800231C
:1014DC00FB62FB6A002BE5D1FB681B6814337B6154
:1014EC007B6953E8003F3B613B6923F00103BB631D
:1014FC00FB681B681433BA6B3A62FB61F9693A6A90
:10150C0041E80023BB61BB69002BE5D1FB682022BD
:10151C0083F84120FB68202283F84220FB680022DC
:10152C0083F8402003230FE0FB681B681A68BB6834
:10153C001340BA689A420CBF01230023DBB21A464F
:10154C00FB799A429FD0002318464037BD4680BD98
:10155C0080B584B000AF78607B681B681B6923F48E
:10156C0040517B68DA687B681B680A431A617B68A8
:10157C009A687B681B691A437B685B691343BB6081
:10158C007B681B68DB6823F4B05323F00C037A6888
:10159C001268B9680B43D3607B681B685B6923F4E2
:1015AC0040717B689A697B681B680A435A617B6847
:1015BC001B682C4A934203D1FFF748FEF86002E007
:1015CC00FFF730FEF860FA6813469B0013449A004C
:1015DC001A447B685B689B00B2FBF3F3224AA2FBC4
:1015EC0003235B091901FA6813469B0013449A0004
:1015FC001A447B685B689B00B2FBF3F21A4BA3FBAB
:10160C0002035B09642000FB03F3D31A1B01323382
:10161C00154AA2FB03235B0903F0F0031944FA6893
:10162C0013469B0013449A001A447B685B689B002A
:10163C00B2FBF3F20C4BA3FB02035B09642000FB2F
:10164C0003F3D31A1B013233074AA2FB03235B09B2
:10165C0003F00F027B681B680A449A6000BF1037C6
:10166C00BD4680BD003801401F85EB5170B500258B
:10167C000C4E0D4CA41BA410A54209D100F022F86D
:10168C0000250A4E0A4CA41BA410A54205D170BD1E
:10169C0056F8253098470135EEE756F8253098472F
:1016AC000135F2E714170008141700081417000886
:1016BC001817000803460244934200D1704703F800
:1016CC00011BF9E7F8B500BFF8BC08BC9E46704793
:0C16DC00F8B500BFF8BC08BC9E46704783
:1016E80000000000000000000102030406070809CA
:1016F80000000000010203040203040506070809AC
:0C1708000A0B0C0D0E0F10100102000067
:041714003101000897
:041718000D010008B7
:0C171C000024F400100000000100000098
:040000050800047D6E
:00000001FF
